:020000040800F2
:10000000803301202D030008350300083703000862
:10001000390300083B0300083D030008000000000E
:100020000000000000000000000000006D02000859
:100030004103000800000000C9020008D9090008B7
:100040004703000847030008470300084703000868
:100050004703000847030008470300084703000858
:100060004703000847030008470300084703000848
:100070004703000847030008470300084703000838
:100080004703000847030008470300084703000828
:100090004703000847030008470300084703000818
:1000A0004703000847030008470300084703000808
:1000B00047030008470300084703000847030008F8
:1000C00047030008470300084703000847030008E8
:1000D00047030008710A00084703000847030008A7
:1000E00047030008470300084703000847030008C8
:1000F00047030008470300084703000847030008B8
:1001000047030008470300084703000847030008A7
:100110004703000847030008470300084703000897
:100120004703000847030008470300084703000887
:10013000470300080000000000000000470300081B
:100140004703000847030008470300084703000867
:100150004703000847030008470300084703000857
:100160004703000847030008470300084703000847
:100170004703000847030008470300080000000089
:10018000000000004703000800000000000000001D
:1001900047030008000000000000000047030008BB
:1001A00000000000000000000000000047030008FD
:1001B00047030008470300084703000847030008F7
:1001C0004703000800F002F800F041F80AA090E8A8
:1001D000000C82448344AAF10107DA4501D100F002
:1001E00036F8AFF2090EBAE80F0013F0010F18BF8E
:1001F000FB1A43F00103184798180000B8180000D4
:10020000103A24BF78C878C1FAD8520724BF30C842
:1002100030C144BF04680C60704700000023002414
:1002200000250026103A28BF78C1FBD8520728BF06
:1002300030C148BF0B607047752900F0DF80002097
:1002400070471FB501F01EFC1FBD10B510BD00F0BA
:1002500002FA1146FFF7F5FF00F07EFC00F020FAED
:1002600003B4FFF7F2FF03BC00F028FA2C4B196827
:100270000868B0E8F04F80F30988BFF36F8F4FF044
:10028000000080F3118870470000000008480068F3
:10029000006880F308884FF0000080F3148862B68D
:1002A00061B6BFF34F8FBFF36F8F00DF00BF00BF9A
:1002B00008ED00E0DFF80C00016841F47001016016
:1002C000704700BF88ED00E0EFF30980BFF36F8F48
:1002D000134B1A681EF0100F08BF20ED108A20E99A
:1002E000F04F106009B44FF0BF0080F31188BFF3E6
:1002F0004F8FBFF36F8F00F0D7FF4FF0000080F3F8
:10030000118809BC19680868B0E8F04F1EF0100F9A
:1003100008BFB0EC108A80F30988BFF36F8F704775
:1003200018000020EFF3058070470000094880475F
:1003300009480047FEE7FEE7FEE7FEE7FEE7FEE7C7
:10034000FEE7FEE7FEE7FEE704480549054A064BDF
:10035000704700000D0A0008C5010008802D01202B
:1003600080330120802F0120802F01200FB41CB585
:10037000074B06AA7B4469460090059800F021F9D6
:100380000020694600F030F91CBC5DF814FB000049
:10039000710200002DE9F0410E4604460020206263
:1003A0002046E168884730B3252805D0D4E90121EB
:1003B0009047206A401CF2E7E16820460027884702
:1003C000050018D0A5F14100192802D820354FF4B6
:1003D00000673246294620462760FFF72DFF40B1CF
:1003E000012804D0F61D26F007060836D8E7361D8A
:1003F000D6E72846DAE7206ABDE8F0812DE9F0412A
:100400000646002410687529314616A510D0AFF3B2
:100410000080002802DA404213A507E031688A070D
:1004200001D512A502E0490704D511A5012401E078
:10043000AFF3008000210A2206F1240709E0B0FB97
:10044000F2FCB0FBF2F302FB1C003030785418468B
:10045000491C0028F3D123462A463046BDE8F04126
:1004600000F050B8000000002D0000002B0000003C
:1004700020000000032A40F2308010F0030C00F04E
:10048000158011F8013BBCF1020F624498BF11F8CE
:1004900001CB00F8013B38BF11F8013BA2F1040287
:1004A00098BF00F801CB38BF00F8013B11F00303FF
:1004B00000F09F80083AC0F0088051F8043B083AE9
:1004C00051F804CBA0E80810F5E7121D5CBF51F805
:1004D000043B40F8043BAFF30080D20724BF11F87F
:1004E000013B11F801CB48BF11F8012B24BF00F8E4
:1004F000013B00F801CB48BF00F8012B7047704763
:10050000704770472DE9F0470D46994692460446DC
:1005100000F124080168880604D5E06921F0100183
:10052000216000E00120A84201DD471B00E0002718
:10053000A1697A1902EB0900081AA0612078C006A7
:1005400002D42046AFF30080002608E0D4E9012160
:100550001AF806009047206A401C761C20624E451F
:10056000F4DB2078C0060AD52046AFF3008006E011
:10057000D4E9012130209047206A401C2062381EB7
:10058000A7F10107F4DC07E0D4E9012118F8050020
:100590009047206A401C2062281EA5F10105F3DC6B
:1005A0002046AFF300802078000602D50220BDE887
:1005B000F0870120FBE7000001694A1C026108780E
:1005C000704700B58FB0CDE9013100210591054993
:1005D0007944CDE9031011466846FFF7DBFE0FB002
:1005E00000BD0000E5FFFFFF0A6802F8010B0A608A
:1005F000704710B5203AC0F00B80B1E81850203A8F
:10060000A0E81850B1E81850A0E81850BFF4F5AFB2
:100610005FEA027C24BFB1E81850A0E8185044BF3C
:1006200018C918C0BDE810405FEA827C24BF51F8A9
:10063000043B40F8043B08BF7047D20728BF31F89D
:10064000023B48BF11F8012B28BF20F8023B48BFEE
:1006500000F8012B7047754600F02CF8AE460500F7
:100660006946534620F00700854618B020B5FFF7CD
:100670006BFEBDE820404FF000064FF000074FF042
:1006800000084FF0000B21F00701AC46ACE8C009B0
:10069000ACE8C009ACE8C009ACE8C0098D467047B9
:1006A00010B50446AFF300802046BDE81040FFF7C8
:1006B000D7BD0000004870471C2D012001491820BB
:1006C000ABBEFEE72600020070470000214800682C
:1006D00040F482401F4908601E481438006840F00A
:1006E00001001C49143908601B48006840F00300F1
:1006F000194908600846806840F003008860084691
:10070000C06820F00300C8601448006840F400305E
:100710001349C1F804030846806840F0010088606E
:100720000846006940F0070008610846806840F00C
:10073000706088600846806840F0405088600846D5
:10074000806820F0020088600846406B20F00100BD
:1007500048637047443802400000024004230140CF
:10076000002001402048006840F003001E49086056
:100770001E48006820F440601C4908600846006874
:1007800040F48060086019480C30006820F4406034
:1007900016490C3108601548001D006820F0200043
:1007A0001249091D0860081D006840F44060091DD9
:1007B00008600F48006820F440600D490860084652
:1007C000006840F4806008600846C06820F440601B
:1007D000C8600846406820F02000486008468068ED
:1007E00040F44060886070473038024000040240A6
:1007F000000002402648006840F0010024490860DB
:1008000000BF2348006800F002000028F9D021480A
:10081000006840F2037108431E4908601C48083014
:1008200000684FF6F04188431949083108600846CE
:10083000006840F414400860081F0068164908402A
:100840001349091D08600846006814490843104907
:10085000091D0860081F006840F08070091F0860CB
:1008600000BF0B48006800F000700028F9D008486D
:100870000830006840F0020005490831086000BFF8
:1008800003480830006800F00C000828F8D17047D1
:1008900000380240003C02400080BC8F081E00204F
:1008A00010B52748006840F010002549086024482A
:1008B0001438006840F001002149143908602148CB
:1008C000006840F420101F4908600846806840F422
:1008D000701088600846C06840F4A010C8600846E0
:1008E000406A40F4EE611748416240F2092016491F
:1008F00088600846C06842F22C0108431249C8606B
:100900002520002809DB00F01F0201219140420947
:10091000920002F1E022C2F8001100BF252004215C
:10092000002804DB0A07130E084A135406E00A07DE
:10093000140E074A00F00F031B1FD45400BF10BD54
:1009400044380240000002400010014000E400E092
:1009500018ED00E04FF48040014908607047000046
:10096000140C024000BF0449096801F0400100294D
:10097000F9D00149486070470010014010B50246A7
:10098000002305E019465C1CE3B2505C00F004F85B
:10099000D05C0028F6D110BD00BF0449096801F001
:1009A00040010029F9D0014948607047001001401A
:1009B0000848806840F080400649886000BF0548CC
:1009C000006800F002000028F9D00248C06C80B234
:1009D000704700000020014010B500BFBF2080F329
:1009E0001188BFF34F8FBFF36F8F00BF00F0A8FED9
:1009F00018B14FF080500449086000BF002080F318
:100A0000118800BF10BD000004ED00E0144800682C
:100A100040F47000124908601248006840F001007C
:100A20001049086000200F49083108600D4800682F
:100A30000D4908400B4908600C48091D0860081F53
:100A4000006820F48020091F0860002005490C314F
:100A500008604FF00060024980390860704700006C
:100A600088ED00E000380240FFFFF6FE1030002461
:100A700010B51848006800F0200048B31548006819
:100A800020F02000134908600846406830280DD146
:100A9000FFF782FF0A20FFF77FFF0FA0FFF76EFF2F
:100AA0000F48006820F400400D490860094840687C
:100AB00031280DD1FFF770FF0A20FFF76DFF09A065
:100AC000FFF75CFF0648006840F4004004490860F6
:100AD00010BD0000001001404F46460D0A00000006
:100AE000140C02404F4E0D0A000000001848006828
:100AF00020F04040164908600846006820F0605029
:100B000008600846006840F04050086010482830EF
:100B1000006840F004000E49283108600D48006864
:100B200040F400200B4908600A480830006840F093
:100B3000F000084908310860081D006840F4802072
:100B4000091D08600348406A024948627047000076
:100B500008380240000802401CB5FFF74BFEFFF7C3
:100B6000C5FFFFF7FFFDFFF79BFEFFF7AFFD00207E
:100B7000012103468022CDE900100DA10D4800F0AF
:100B8000AFFD0020022103468022CDE900100AA11A
:100B90000A4800F0A5FD00220221052000F0E4FB38
:100BA0000749086000F046FB01E0FFF7D3FEFCE7D1
:100BB000484D49005918000841444300991600085F
:100BC000000000202DE9F04105460E461648076852
:100BD00016480068001D00F06DFA681C38B936B17F
:100BE00012480168091D124800F0ABFA1AE07C199E
:100BF0000E4800684460BC4207D20C480168091DD9
:100C00000C48006800F083FA0CE008480168091DF0
:100C10000948006800F07BFA08480068844201D265
:100C200006480460BDE8F0812C0000201800002078
:100C3000082D0120200000201C000020480000207A
:100C400010B5044600F08AFA22480068401C214989
:100C500008602148006840B91F48046008460068E1
:100C600001280DD100F024F90AE01C48006838B9C9
:100C700019480068C06AE16A884201D816480460D1
:100C800017480068401C164908601649E06A096860
:100C9000884202D91349E06A0860E16A01EB8101E8
:100CA000114A02EB8100211D00F04BFA00F068FAB6
:100CB0000A48006868B108480068C06AE16A88426A
:100CC00007D24FF0805009490860BFF34F8FBFF340
:100CD0006F8F10BD28000020180000203400002075
:100CE0004400002030000020542C012004ED00E0DE
:100CF00010B516E000F032FA0C48C068C468201D38
:100D000000F0D8F90A480068401E094908600948FF
:100D10000068401E0749086000F032FA204600F0E3
:100D200055F8044800680028E4D110BDF42C0120D7
:100D3000280000202400002070B504460D46206CD9
:100D400070B1216CE0680844E0606168E068884246
:100D500001D32068E0602846226CE168FFF78AFB37
:100D600070BD2DE9F04104460F4615464FF00008CE
:100D7000A66B206C28B37DB93946226CA068FFF7BA
:100D800079FB216CA0680844A060D4E90110884276
:100D900017D32068A06014E03946226CE068FFF7A2
:100DA00069FB216CE068401AE0602168E0688842D5
:100DB00003D2216C6068401AE060022D01D106B1B7
:100DC000761E701CA0634046BDE8F08110B5044655
:100DD000206B00F0E5F9204600F0E2F910BD0000BC
:100DE00000BFFFF785FF064800680128F9D94FF0DA
:100DF000805004490860BFF34F8FBFF36F8FF0E757
:100E0000542C012004ED00E02DE9F04106460D468A
:100E100017469846069C0DB9246000E02760E663FB
:100E200025640121204600F0BBFABDE8F0812DE9E0
:100E3000FF5F80460E469146DDE90E7A109CA9F1CF
:100E40000100216B01EB800B2BF0070B002507E065
:100E5000715D04F134004155705D00B902E06D1C14
:100E6000102DF5D300BF002143200155052F00D3DD
:100E70000427E762201D00F047F904F1180000F094
:100E800043F92461C7F10500A06164620020606439
:100E900084F8480041465846039A00F0F5F820606F
:100EA000BAF1000F01D0CAF80040BDE8FF9F000072
:100EB00010B5002407E004EB84010F4A02EB810027
:100EC00000F015F9641C052CF5D30C4800F00FF95F
:100ED0000B4800F00CF90B4800F009F90A4800F043
:100EE00006F90A4800F003F9044809490860044873
:100EF0000849086010BD0000542C0120B82C0120C6
:100F0000CC2C0120E02C0120F42C0120082D012004
:100F10001C0000202000002070B5054600F01EF9DE
:100F2000A86B08B9012400E0002400F029F920464C
:100F300070BD70B5054600F011F9A86BE96B8842E9
:100F400001D1012400E0002400F01AF9204670BD10
:100F50000A490968096809B9012100E0002121B1A5
:100F60004FF0FF31064A116006E004490968C9687C
:100F7000C868034A41681160704700001C000020E7
:100F80004800002000BFBF2080F31188BFF34F8FBF
:100F9000BFF36F8F00BF00BFFEE770B5044600F0DF
:100FA000DDF894F9455010E0606A08B9012000E0CE
:100FB000002038B904F1240000F0B0FC18B100F0B2
:100FC00023F900E003E0681E45B2002DECDC00BF11
:100FD000FF2084F8450000F0D3F800F0BFF894F942
:100FE000445010E0206908B9012000E0002048B911
:100FF00004F1100000F092FC08B100F005F9681E41
:1010000045B200E001E0002DECDC00BFFF2084F8D9
:10101000440000F0B5F870BD70B50446002504F03A
:10102000070020B104F00700C0F10800044400F0FC
:1010300033F91148006820B9104820F007000E4924
:1010400008600F48006820440E49884210D20C48BE
:10105000006820440A490968884209D9064800689E
:101060000749096845180648006820440449086093
:1010700000F094FC284670BD100000205C000020A9
:101080000C000020F82B0100001F4FF0807303605C
:10109000001F21F001030360001F054B036014389B
:1010A0000260001F6FF002030360203870470000E9
:1010B000850F000801460A69D1E901309860D1E93D
:1010C000010358605068884201D188685060002050
:1010D00008611068401E10601068704770B50446C3
:1010E00000F03CF8A56B00F04BF8284670BD00F10D
:1010F000080141604FF0FF31816000F10801C160DB
:10110000016100210160704700210161704710B545
:1011100002460B685C1C0CB9106907E002F108007C
:1011200000E04068446824689C42FAD944684C60F6
:101130004C68A160886041600A611468641C146096
:1011400010BD42684A6093688B60936859609160F3
:10115000086103685B1C03607047000000BFBF208C
:1011600080F31188BFF34F8FBFF36F8F00BF034829
:101170000068401C0149086070470000140000200E
:1011800006480068401E054908600846006820B906
:10119000002080F3118800BF00BF704714000020BA
:1011A0007047000000204FF0E0210861886102488C
:1011B0004861072008617047BFD4010070B504463C
:1011C000002544B100F068F800212046FFF7FAFC42
:1011D00000F0E4FB05463DB94FF08050034908603C
:1011E000BFF34F8FBFF36F8F70BD000004ED00E0C1
:1011F00003490968016003490968416070470000BC
:10120000400000202C0000200120014908607047A8
:101210003C00002070B505460C46054801681831B1
:101220002846FFF774FF01212046FFF7CBFC70BD75
:10123000180000201CB5114800210B462022CDE9E2
:1012400000100FA1104800F04BFA0446012C14D1F5
:1012500000BFBF2080F31188BFF34F8FBFF36F8FA4
:1012600000BF4FF0FF3009490860012008490860BD
:1012700000200849086000F053F81CBD4C00002015
:1012800049444C4500000000E10D000848000020E2
:10129000340000202C00002002480068401C014956
:1012A00008607047500000201848006818B10120FD
:1012B0001749086028E000201549086015480168B2
:1012C00000E0491E01EB8100134A52F8200008B9E2
:1012D000012000E000200028F3D101EB81020E4B39
:1012E00003EB820042685268426000F108024368E2
:1012F000934202D14268526842604268D268074B0A
:101300001A600448016000BF7047000050000020D0
:101310003C00002030000020542C01201800002048
:1013200010B50E48006840F47F000C49086008467C
:10133000006840F07F400860FFF734FF0020084954
:101340000860FEF7B7FF0748006840F040400549D5
:101350000860FEF79BFF002010BD000020ED00E0BC
:101360001400002034EF00E02DE9F84307460D4655
:1013700090460DB9002601E007FB05F606F148008E
:10138000FFF74AFE044644B104F1480943464A4681
:10139000294638460094FFF737FD2046BDE8F8831C
:1013A00070B505460E462C46FFF7D8FED4E90F125D
:1013B000206801FB020060600020A0632068A0603C
:1013C000E06B401E226C216800FB0210E060FF20F1
:1013D00084F8440084F845009EB9206908B90120CA
:1013E00000E00020A8B904F1100000F097FA80B1E5
:1013F0004FF0805009490860BFF34F8FBFF36F8FE4
:1014000007E004F11000FFF772FE04F12400FFF77B
:101410006EFEFFF7B5FE012070BD000004ED00E098
:101420002DE9FF4383B0074688461D464FF000096B
:101430003C4600BFFFF792FEA06BE16B884201D3F0
:10144000022D28D12A4641462046FFF78AFC06464F
:10145000606A08B9012000E0002068B904F12400A6
:1014600000F05CFA88B14FF0805032490860BFF359
:101470004F8FBFF36F8F08E03EB14FF080502D4982
:101480000860BFF34F8FBFF36F8FFFF779FE012026
:1014900007B0BDE8F083059818B9FFF771FE00208A
:1014A000F6E7B9F1000F04D101A8FFF7A1FE4FF054
:1014B0000109FFF765FEFFF7EFFEFFF74FFE94F916
:1014C0004400401C10B9002084F8440094F9450001
:1014D000401C10B9002084F84500FFF751FE05A913
:1014E00001A800F0ABF8F0B92046FFF722FDA0B14B
:1014F00004F110000599FFF78DFE2046FFF74DFD22
:1015000000F04CFA002895D14FF08050094908604E
:10151000BFF34F8FBFF36F8F8CE72046FFF73DFD82
:1015200000F03CFA86E72046FFF737FD00F036FA78
:101530000020ADE704ED00E02DE9F74183B005465A
:101540000F464FF000082C4600BFFFF707FEA66BC2
:10155000F6B139462046FFF7EFFB701EA063206905
:1015600008B9012000E0002060B904F1100000F08B
:10157000D5F938B14FF080502F490860BFF34F8F35
:10158000BFF36F8FFFF7FCFD012006B0BDE8F081CF
:10159000059818B9FFF7F4FD0020F6E7B8F1000F41
:1015A00004D101A8FFF724FE4FF00108FFF7E8FD82
:1015B000FFF772FEFFF7D2FD94F94400401C10B90A
:1015C000002084F8440094F94500401C10B9002024
:1015D00084F84500FFF7D4FD05A901A800F02EF816
:1015E000F0B92046FFF798FCA0B104F1240005995A
:1015F000FFF710FE2046FFF7D0FC00F0CFF90028DF
:10160000A3D14FF080500C490860BFF34F8FBFF358
:101610006F8F9AE72046FFF7C0FC00F0BFF994E710
:101620002046FFF7BAFC00F0B9F92046FFF774FC3A
:1016300000288AD00020A8E704ED00E070B5064637
:101640000C46FFF78BFD124802687068131A206879
:10165000401C08B9002517E00E4930680968884227
:1016600004D07068904201D801250DE020689842AE
:1016700007D92068C01A20603046FFF7B9FD002561
:1016800002E0002020600125FFF77AFD284670BDAA
:101690002C0000204000002008B57D20009019E0BB
:1016A000FFF786F90090BDF80000C11700EB11713B
:1016B0000911009100231A46694607480068FFF7A0
:1016C000AFFE0648406980F02000044948610A20C6
:1016D000FFF774FDE4E70000000000200000024076
:1016E0002DE9FF4F85B0804689461746DDE912ABEC
:1016F000B800FFF791FC064656B14C20FFF78CFC72
:1017000004460CB1266304E03046FFF749FD00E0D3
:1017100000247CB10020CDE900ABCDE902403A467F
:1017200049464046089BFFF782FB2046FFF788FAB0
:10173000012501E04FF0FF35284609B0BDE8F08FE4
:101740002DE9F041002739480068002862D1384867
:101750000068451C364805608DB93648D0F80080D1
:1017600035480068334908603348C0F80080334882
:101770000068401C31490860FFF7EAFB00BF3048B1
:10178000006885423AD300BF2A480068006808B95B
:10179000012000E0002020B14FF0FF302849086010
:1017A0002BE024480068C068C4686668B54202D26D
:1017B0002348066021E0201DFFF77CFCA06A18B1D9
:1017C00004F11800FFF776FC1E49E06A09688842B8
:1017D00002D91C49E06A0860E16A01EB81011A4AFA
:1017E00002EB8100211DFFF7ACFC1849E06A096893
:1017F000C96A8842C8D30127C6E700BF13480068FA
:10180000C06A00EB8000104951F82000012800D97F
:10181000012704E00E480068401C0D4908600D488F
:10182000006800B101273846BDE8F0815000002073
:101830002C0000201C000020200000204000002080
:101840004800002030000020542C01201800002007
:10185000380000203C0000201CB50020019022A090
:10186000FFF78CF8FF20FFF77DF8FF20FFF77AF8ED
:10187000FF20FFF777F835E01F480068FFF72EFCE0
:1018800000282CD0002201A91B480068FFF754FE55
:10189000BDF8042019A16846FEF768FD18A0FFF7FF
:1018A0006DF86846FFF76AF818A0FFF767F8FF20A1
:1018B000FFF758F8FF20FFF755F8FF20FFF752F821
:1018C00013A0FFF75BF86846FFF758F8FF20FFF713
:1018D00049F8FF20FFF746F8FF20FFF743F80A20FA
:1018E000FFF76CFCC8E7000062617564733D31313D
:1018F0003532303000000000000000202575000067
:1019000054657874312E7478743D220022000000F2
:1019100061646420332C302C0000000070B5064652
:10192000F068C46804F11800FFF7C4FB15480068AC
:10193000A0B9201DFFF7BEFB1349E06A0968884281
:1019400002D91149E06A0860E16A01EB81010F4A9E
:1019500002EB8100211DFFF7F4FB04E004F1180104
:101960000B48FFF7EEFB0B49E06A0968C96A884239
:1019700004D9012501200849086000E00025284617
:1019800070BD00005000002030000020542C0120C9
:10199000E02C0120180000203C00002070B500243D
:1019A0000026FFF7DBFB2E480068401E2C4908602C
:1019B0000846006800284ED12A48006800284AD00E
:1019C00023E02948C068C46804F11800FFF772FBDF
:1019D000201DFFF76FFB2549E06A0968884202D99C
:1019E0002249E06A0860E16A01EB8101204A02EBCA
:1019F0008100211DFFF7A5FB1E49E06A0968C96A3D
:101A0000884202D301201C4908601748006808B9C1
:101A1000012000E000200028D3D00CB1FFF798FA95
:101A20001648056865B100BFFFF78AFE10B10120B6
:101A3000114908606D1E002DF6D100200F49086085
:101A40000D48006838B1012630070D490860BFF322
:101A50004F8FBFF36F8FFFF793FB304670BD0000D1
:101A60005000002028000020E02C01203000002041
:101A7000542C0120180000203C00002038000020D9
:101A800004ED00E04FF04070E1EE100A70470000F6
:101A9000B01A0008000000205400000000020008F6
:101AA000041B0008540000202C3301001C02000815
:101AB0000000000000000000010000000000000025
:101AC00000000000AAAAAAAA00000000000000006E
:101AD0000000000000000000000000000000000006
:101AE00000000000000000000000000000000000F6
:101AF00000000000000000000000000000000000E6
:041B000000000000E1
:04000005080001C529
:00000001FF
