:020000040800F2
:1000000078330120250300082D0300082F03000882
:100010003103000833030008350300080000000026
:100020000000000000000000000000006502000861
:100030003903000800000000C1020008290400087C
:100040003F0300083F0300083F0300083F03000888
:100050003F0300083F0300083F0300083F03000878
:100060003F0300083F0300083F0300083F03000868
:100070003F0300083F0300083F0300083F03000858
:100080003F0300083F0300083F0300083F03000848
:100090003F0300083F0300083F0300083F03000838
:1000A0003F0300083F0300083F0300083F03000828
:1000B0003F0300083F0300083F0300083F03000818
:1000C0003F0300083F0300083F0300083F03000808
:1000D0003F0300083F030008C10400083F03000875
:1000E0003F0300083F0300083F0300083F030008E8
:1000F0003F0300083F0300083F0300083F030008D8
:100100003F0300083F0300083F0300083F030008C7
:100110003F0300083F0300083F0300083F030008B7
:100120003F0300083F0300083F0300083F030008A7
:100130003F03000800000000000000003F0300082B
:100140003F0300083F0300083F0300083F03000887
:100150003F0300083F0300083F0300083F03000877
:100160003F0300083F0300083F0300083F03000867
:100170003F0300083F0300083F03000800000000A1
:10018000000000003F030008000000000000000025
:100190003F03000800000000000000003F030008CB
:1001A0000000000000000000000000003F03000805
:1001B0003F0300083F0300083F0300083F03000817
:1001C0003F03000800F002F800F03CF80AA090E8B5
:1001D000000C82448344AAF10107DA4501D100F002
:1001E00031F8AFF2090EBAE80F0013F0010F18BF93
:1001F000FB1A43F001031847280C0000480C0000CC
:10020000103A24BF78C878C1FAD8520724BF30C842
:1002100030C144BF04680C60704700000023002414
:1002200000250026103A28BF78C1FBD8520728BF06
:1002300030C148BF0B6070471FB500F0EBFD1FBD1C
:1002400010B510BD00F091F81146FFF7F5FF00F072
:1002500075F900F0AFF803B4FFF7F2FF03BC00F04C
:10026000B7F800002C4B19680868B0E8F04F80F32D
:100270000988BFF36F8F4FF0000080F3118870473B
:100280000000000008480068006880F308884FF00C
:10029000000080F3148862B661B6BFF34F8FBFF3DE
:1002A0006F8F00DF00BF00BF08ED00E0DFF80C003B
:1002B000016841F470010160704700BF88ED00E003
:1002C000EFF30980BFF36F8F134B1A681EF0100F06
:1002D00008BF20ED108A20E9F04F106009B44FF0FC
:1002E000BF0080F31188BFF34F8FBFF36F8F00F013
:1002F00065FB4FF0000080F3118809BC196808689D
:10030000B0E8F04F1EF0100F08BFB0EC108A80F379
:100310000988BFF36F8F704710000020EFF305804E
:10032000704700000948804709480047FEE7FEE79C
:10033000FEE7FEE7FEE7FEE7FEE7FEE7FEE7FEE795
:1003400004480549054A064B704700005D04000853
:10035000C5010008782D012078330120782F012075
:10036000782F0120704770477047754600F02CF8D1
:10037000AE4605006946534620F00700854618B092
:1003800020B5FFF7DDFFBDE820404FF000064FF03D
:1003900000074FF000084FF0000B21F00701AC46BA
:1003A000ACE8C009ACE8C009ACE8C009ACE8C009D9
:1003B0008D46704710B50446AFF300802046BDE877
:1003C0001040FFF748BF000000487047142D01207F
:1003D00001491820ABBEFEE726000200704700006E
:1003E0004FF480400149086070470000140C02403F
:1003F00010B50246002305E019465C1CE3B2505CD0
:1004000000F004F8D05C0028F6D110BD00BF05490B
:10041000096801F040010029F9D00249091D08606E
:10042000704700000044004010B500BFBF2080F3BB
:100430001188BFF34F8FBFF36F8F00BF00F0AAFB8F
:1004400018B14FF080500449086000BF002080F3CD
:10045000118800BF10BD000004ED00E014480068E2
:1004600040F47000124908601248006840F0010032
:100470001049086000200F49083108600D480068E5
:100480000D4908400B4908600C48091D0860081F09
:10049000006820F48020091F0860002005490C3105
:1004A00008604FF000600249803908607047000022
:1004B00088ED00E000380240FFFFF6FE1030002417
:1004C00010B51848006800F0200050B315480068C7
:1004D00020F0200013490860081D006830280DD165
:1004E000FFF794FF0A20FFF791FF0FA0FFF780FFAF
:1004F0000F48006820F400400D4908600948001DBD
:10050000006831280DD1FFF781FF0A20FFF77EFF39
:1005100008A0FFF76DFF0648006840F4004004495A
:10052000086010BD004400404F46460D0A00000020
:10053000140C02404F4E0D0A000000000022012161
:10054000052000F09BFA0449086000F0FDF901E085
:10055000FFF746FFFCE700000000002010B504464E
:1005600000F0C2F922480068401C21490860214877
:10057000006840B91F4804600846006801280DD192
:1005800000F0DAF80AE01C48006838B91948006839
:10059000C06AE16A884201D81648046017480068BA
:1005A000401C164908601649E06A0968884202D969
:1005B0001349E06A0860E16A01EB8101114A02EB2C
:1005C0008100211D00F084F900F0A0F90A480068BC
:1005D00068B108480068C06AE16A884207D24FF0F3
:1005E000805009490860BFF34F8FBFF36F8F10BD74
:1005F00020000020100000202C0000203C000020E3
:10060000280000204C2C012004ED00E010B516E07D
:1006100000F06AF90C48C068C468201D00F034F985
:100620000A480068401E0949086009480068401EE1
:100630000749086000F06AF9204600F00BF804480A
:1006400000680028E4D110BDEC2C0120200000201F
:100650001C00002010B50446206B00F067F920460E
:1006600000F064F910BD000000BFFFF7CFFF06489F
:1006700000680128F9D94FF0805004490860BFF3A1
:100680004F8FBFF36F8FF0E74C2C012004ED00E09B
:100690002DE9F04106460D4617469846069C0DB9D1
:1006A000246000E02760E66325640121204600F015
:1006B00001FABDE8F0812DE9FF5F80460E469146C4
:1006C000DDE90E7A109CA9F10100216B01EB800B92
:1006D0002BF0070B002507E0715D04F13400415554
:1006E000705D00B902E06D1C102DF5D300BF002134
:1006F00043200155052F00D30427E762201D00F099
:10070000E4F804F1180000F0E0F82461C7F10500F6
:10071000A06164620020606484F848004146584645
:10072000039A00F09BF82060BAF1000F01D0CAF8DC
:100730000040BDE8FF9F000010B5002407E004EB77
:1007400084010F4A02EB810000F0B2F8641C052C12
:10075000F5D30C4800F0ACF80B4800F0A9F80B48B2
:1007600000F0A6F80A4800F0A3F80A4800F0A0F844
:1007700004480949086004480849086010BD0000A1
:100780004C2C0120B02C0120C42C0120D82C01209D
:10079000EC2C0120002D0120140000201800002066
:1007A0000A490968096809B9012100E0002121B15D
:1007B0004FF0FF31064A116006E004490968C96834
:1007C000C868034A416811607047000014000020A7
:1007D0004000002000BFBF2080F31188BFF34F8F7F
:1007E000BFF36F8F00BF00BFFEE7000070B5044687
:1007F000002504F0070020B104F00700C0F1080054
:10080000044400F0D3F81148006820B9104820F0E3
:1008100007000E4908600F48006820440E498842CE
:1008200010D20C48006820440A490968884209D956
:1008300006480068074909684518064800682044CA
:100840000449086000F072FA284670BD08000020D4
:100850005400002004000020F82B0100001F4FF07E
:1008600080730360001F21F001030360001F054B2C
:10087000036014380260001F6FF002030360203829
:1008800070470000D507000801460A69D1E9013028
:100890009860D1E9010358605068884201D18868A6
:1008A0005060002008611068401E1060106870479A
:1008B00000F1080141604FF0FF31816000F1080153
:1008C000C160016100210160704700210161704732
:1008D00042684A6093688B609368596091600861D0
:1008E00003685B1C0360704700BFBF2080F3118862
:1008F000BFF34F8FBFF36F8F00BF03480068401CEA
:1009000001490860704700000C000020064800689C
:10091000401E054908600846006820B9002080F3A1
:10092000118800BF00BF70470C0000207047000016
:1009300000204FF0E02108618861024848610720EB
:10094000086170473F9002001CB5114800210B461A
:100950002022CDE900100FA1104800F0EBF804466A
:10096000012C14D100BFBF2080F31188BFF34F8F3B
:10097000BFF36F8F00BF4FF0FF30094908600120BF
:100980000849086000200849086000F053F81CBDC1
:100990004400002049444C4500000000690600085E
:1009A000400000202C0000202400002002480068A5
:1009B000401C014908607047480000201848006842
:1009C00018B101201749086028E000201549086087
:1009D0001548016800E0491E01EB8100134A52F8F6
:1009E000200008B9012000E000200028F3D101EB2D
:1009F00081020E4B03EB820042685268426000F1B4
:100A000008024368934202D14268526842604268D9
:100A1000D268074B1A600448016000BF70470000AD
:100A20004800002034000020280000204C2C012029
:100A30001000002010B50E48006840F47F000C49FB
:100A400008600846006840F07F400860FFF770FFCC
:100A5000002008490860FFF729FC0748006840F0BB
:100A6000404005490860FFF70DFC002010BD000064
:100A700020ED00E00C00002034EF00E02DE9F84309
:100A800007460D4690460DB9002601E007FB05F626
:100A900006F14800FFF7AAFE044644B104F14809F4
:100AA00043464A46294638460094FFF7F1FD204662
:100AB000BDE8F88370B505460E462C46FFF714FFD7
:100AC000D4E90F12206801FB020060600020A063DF
:100AD0002068A060E06B401E226C216800FB0210C1
:100AE000E060FF2084F8440084F845009EB9206946
:100AF00008B9012000E00020A8B904F1100000F0BE
:100B0000D5F880B14FF0805009490860BFF34F8F8E
:100B1000BFF36F8F07E004F11000FFF7C9FE04F187
:100B20002400FFF7C5FEFFF7F1FE012070BD0000B5
:100B300004ED00E02DE9FF4F85B080468946174659
:100B4000DDE912ABB800FFF751FE064656B14C2066
:100B5000FFF74CFE04460CB1266304E03046FFF775
:100B6000E5FE00E000247CB10020CDE900ABCDE93A
:100B700002403A4649464046089BFFF79CFD204606
:100B8000FFF7ECFC012501E04FF0FF35284609B0E6
:100B9000BDE8F08F2DE9F0410027394800680028B2
:100BA00062D138480068451C364805608DB9364822
:100BB000D0F8008035480068334908603348C0F8F1
:100BC000008033480068401C31490860FFF7E8FDA9
:100BD00000BF3048006885423AD300BF2A48006809
:100BE000006808B9012000E0002020B14FF0FF307C
:100BF000284908602BE024480068C068C46866681B
:100C0000B54202D22348066021E0201DFFF73CFEDA
:100C1000A06A18B104F11800FFF736FE1E49E06A19
:100C20000968884202D91C49E06A0860E16A01EB60
:100C300081011A4A02EB8100211DFFF749FE184984
:100C4000E06A0968C96A8842C8D30127C6E700BFBD
:100C500013480068C06A00EB8000104951F820007A
:100C6000012800D9012704E00E480068401C0D4906
:100C700008600D48006800B101273846BDE8F081E2
:100C8000480000202400002014000020180000204C
:100C90003800002040000020280000204C2C0120BB
:100CA00010000020300000203400002070B50646FF
:100CB000F068C46804F11800FFF7E6FD1548006805
:100CC000A0B9201DFFF7E0FD1349E06A09688842DA
:100CD00002D91149E06A0860E16A01EB81010F4A1B
:100CE00002EB8100211DFFF7F3FD04E004F1180180
:100CF0000B48FFF7EDFD0B49E06A0968C96A8842B5
:100D000004D9012501200849086000E00025284693
:100D100070BD000048000020280000204C2C01205D
:100D2000D82C0120100000203400002070B50024D1
:100D30000026FFF7D9FD2E480068401E2C490860A8
:100D40000846006800284ED12A48006800284AD08A
:100D500023E02948C068C46804F11800FFF794FD37
:100D6000201DFFF791FD2549E06A0968884202D9F4
:100D70002249E06A0860E16A01EB8101204A02EB46
:100D80008100211DFFF7A4FD1E49E06A0968C96AB8
:100D9000884202D301201C4908601748006808B93E
:100DA000012000E000200028D3D00CB1FFF7F8FCB0
:100DB0001648056865B100BFFFF7ECFE10B10120D1
:100DC000114908606D1E002DF6D100200F49086002
:100DD0000D48006838B1012630070D490860BFF39F
:100DE0004F8FBFF36F8FFFF791FD304670BD00004E
:100DF0004800002020000020D82C012028000020DE
:100E00004C2C012010000020340000203000002075
:100E100004ED00E04FF04070E1EE100A7047000072
:100E2000400E0008000000204C00000000020008F6
:100E30008C0E00084C0000202C3301001C0200081E
:100E4000000000000000000000000000AAAAAAAAFA
:100E50000000000000000000000000000000000092
:100E60000000000000000000000000000000000082
:100E70000000000000000000000000000000000072
:0C0E800000000000000000000000000066
:04000005080001C529
:00000001FF
